:020000040800F2
:100000002007002089010008E7140008E113000818
:10001000E51400088F020008151800080000000011
:10002000000000000000000000000000EB140008C9
:10003000E902000800000000E9140008ED140008BF
:10004000A3010008A3010008A3010008A301000800
:10005000A3010008A3010008A3010008A3010008F0
:10006000A3010008A3010008A3010008A3010008E0
:10007000A3010008A3010008A3010008A3010008D0
:10008000A3010008A3010008A3010008A3010008C0
:10009000A3010008A3010008A3010008A3010008B0
:1000A000A3010008A3010008A3010008A3010008A0
:1000B00051150008A301000800000000A30100087A
:1000C000A30100080000000000000000A3010008D8
:1000D0000000000009180008A3010008000000004B
:1000E000A3010008A3010008A301000800F002F822
:1000F00000F03AF80AA090E8000C82448344AAF188
:100100000107DA4501D100F02FF8AFF2090EBAE885
:100110000F0013F0010F18BFFB1A43F0010318473B
:10012000C0170000E0170000103A24BF78C878C15B
:10013000FAD8520724BF30C830C144BF04680C60ED
:10014000704700000023002400250026103A28BF35
:1001500078C1FBD8520728BF30C148BF0B60704739
:100160001FB51FBD10B510BD00F058F81146FFF7C0
:10017000F7FF01F061FB00F076F803B4FFF7F2FF40
:1001800003BC00F07DF8000009488047094800479B
:10019000FEE7FEE7FEE7FEE7FEE7FEE7FEE7FEE737
:1001A000FEE7FEE704480549054A064B7047000094
:1001B0004F150008ED000008200100202007002056
:1001C00020030020200300204FF0000200B513465A
:1001D00094469646203922BFA0E80C50A0E80C5067
:1001E000B1F12001BFF4F7AF090728BFA0E80C5018
:1001F00048BF0CC05DF804EB890028BF40F8042B11
:1002000008BF704748BF20F8022B11F0804F18BF7D
:1002100000F8012B7047704770477047754600F033
:100220002BF8AE4605006946534620F00700854688
:1002300018B020B5FFF7B6FFBDE820404FF000062C
:100240004FF000074FF000084FF0000B21F00701BE
:10025000AC46ACE8C009ACE8C009ACE8C009ACE801
:10026000C0098D46704710B50446AFF300802046A4
:10027000BDE81040FFF781BF00487047BC00002078
:1002800001491820ABBEFEE7260002007047FEE7DA
:1002900070B5044640681249124D484321684968C8
:1002A000491CB0FBF1F06860A168206800F006FF0F
:1002B000014628606868B0FBF1F0E0602068C26821
:1002C000B1EB520F06D24168222901D2112100E080
:1002D00049084160216800200968486270BD00003B
:1002E00040420F0008000020704710B590F8211020
:1002F0000022022905D00421816380F820200120FA
:1003000010BD01680B6823F00E030B6001680B68D9
:1003100023F001030B6090F84030C46B012101FA17
:1003200003F3636080F8211080F82020104610BD90
:1003300010B590F821100024022903D00421816314
:1003400001243DE001680A6822F00E020A6001689B
:100350000A6822F001020A601A4A0168914201D13A
:10036000012121E0174A1432914201D110211BE0F2
:10037000144A2832914201D1891515E0114A3C32C4
:10038000914201D189140FE00E4A5032914202D1BC
:100390004FF4803108E00B4A6432914202D14FF4AD
:1003A000801101E04FF08071064A083A5160012146
:1003B00080F82110002180F82010416B01B188479E
:1003C000204610BD0800024070B5044600F0FCF85D
:1003D0000546601C02D004480078044400F0F4F89C
:1003E000401BA042FAD370BD100000202DE9F84F49
:1003F000DFF89C91002409F1040A0AF1040B23465A
:100400000F270BF1040EBBE00125A5402A40AA42AC
:1004100076D1DFF880C14E68A6EB0C0866452BD07C
:100420000DDC032E34D005DC36B3012E19D0022E9C
:100430002FD11BE0112E16D0122E2AD119E0B8F5BB
:10044000881F19D006DCB8F5803F15D0B8F5801F9D
:100450001FD111E0B8F5001F0ED0B8F5041F18D158
:100460000AE0CB6815E0CB681B1D12E0CB680833AF
:100470000FE0CB680C330CE08B682BB1012B4FF0F5
:10048000080303D0456104E0042302E0056100E0B5
:100490000023FF2A01D8064601E000F104064FEAD6
:1004A000840501D9A5F12005D6F8008007FA05FCDE
:1004B00028EA0C0803FA05F548EA0508C6F80080A2
:1004C0004D68ED005BD5344DAE6946F00106AE6176
:1004D000AD6924F0030605F0010500952F4D06EBEC
:1004E000050CDCF80850A607360F07FA06F825EACF
:1004F0000805DFF8AC80404503D14FF0000810E05C
:100500003DE0DFF8A080404502D14FF0010808E04F
:10051000DFF89480404502D14FF0020801E04FF02F
:10052000030808FA06F848EA0508CCF808804D6880
:10053000D9F80060ED034D4601D5164300E096431F
:100540002E604D68DAF80060AD03554601D51643BC
:1005500000E096432E604D68DBF80060ED025D46DA
:1005600001D5164300E096432E604D68DEF800602A
:10057000AD02754601D5164300E096432E60641C1B
:100580000A6832FA04F57FF43FAFBDE8F88F000047
:100590000004014000001110001002400000014062
:1005A00000080140000C014000100140C26821EA2F
:1005B00002030A4043EA0241016170470AB1016146
:1005C00070470904FBE7000001488068704700009D
:1005D0001000002002488168027811448160704751
:1005E00010000020074810B5016841F010010160BB
:1005F000032000F075F80F2000F006F800F024F852
:10060000002010BD0020024070B50D4D04464FF48F
:100610007A712878B1FBF0F00A490968B1FBF0F073
:1006200000F0ECFA48B9102C07D200222146501EE7
:1006300000F036F800206C6070BD012070BD000035
:10064000100000201C0000200C4808B5816941F012
:1006500001018161816901F001010091C16941F0ED
:100660008051C161C06900F0805000900448416829
:1006700021F0E06141F00071416008BD00100240CE
:1006800000000140002809DB00F01F020121914019
:100690004009800000F1E020C0F800117047000020
:1006A000F0B40E4B1B680C46C3F30223C3F10705DD
:1006B000042D00D90425191D072901D2002300E0CB
:1006C000DB1E012606FA05F1491E214099409E4095
:1006D000761E16403143F0BC01F09DB80CED00E0F1
:1006E000064900F0070208684FF6FF03184040EA89
:1006F0000220034A10430860704700000CED00E040
:100700000000FA052DE9F0470F46050061D0434E81
:10071000306800F00700B84209D2306820F00700C6
:1007200038433060306800F00700B84251D1286883
:100730003B4C810712D5400703D5606840F4E06068
:1007400060602878000703D5606840F460506060FE
:100750006068A96820F0F000084360602878C0074E
:1007600028D06868012810D02168022810D0890795
:1007700000292EDA616821F0030101436160FFF76F
:1007800023FF804641F288390DE021688903EFE7B5
:100790008901EDE7FFF718FFA0EB0801494502D9F1
:1007A0000320BDE8F0876068696800F00C00B0EBDA
:1007B000810FEFD1306800F00700B8420BD93068E4
:1007C00020F0070038433060306800F00700B8427E
:1007D00001D00120E5E72878400705D56068E96881
:1007E00020F4E060084360602878000706D5606860
:1007F000296920F4605040EAC100606000F038F8D8
:100800006168084AC1F30311515CC8400649086099
:1008100006480068FFF7F8FE0020C2E7002002400B
:1008200000100240C81800081C000020140000201E
:100830000448054900684968044AC1F30221515C33
:10084000C84070471C00002000100240D818000863
:100850000448054900684968044AC1F3C221515C53
:10086000C84070471C00002000100240D818000843
:1008700012A185B00FC98DE80F0014A0144A0068BA
:1008800004905168134801F00C03042B10D0082B7E
:100890000ED1C1F38343C9031DF803000AD5516883
:1008A00004AAC1F34041515C0A4A5043B0FBF1F045
:1008B00005B0704708494843FAE700000203040501
:1008C000060708090A0B0C0D0E0F1010010200009C
:1008D0000010024000127A0000093D002DE9F84F97
:1008E000040070D02078C04DC00749D06868C0F3BC
:1008F0008100012807D06868C0F38100022809D16F
:100900006868C00306D52868800339D56068002868
:10091000E7D035E06068B0F5803F0BD010B1B0F59E
:10092000A02F11D0286820F480302860286820F497
:10093000802002E0286840F480302860606890B130
:10094000FFF742FE06460AE0286840F4802028604F
:10095000F0E700BFFFF738FE801B642873D82868D3
:100960008003F7D50CE0FFF72FFE064605E000BF39
:10097000FFF72AFE801B6428F0D828688003F7D48C
:1009800020789A4E80074FF001094FF0000839D5C2
:10099000686810F00C0F07D06868C0F38100022867
:1009A00009D16868C00306D42868800714D5206977
:1009B000012808D110E02069B0B1C6F80090FFF717
:1009C00003FE074605E00AE1FFF7FEFDC01B022813
:1009D000C4D828688007F7D52868616920F0F80036
:1009E00040EAC10028600DE0C6F80080FFF7ECFD8A
:1009F000074604E0FFF7E8FDC01B022823D828685B
:100A00008007F7D4207800072CD57948A169D9B19F
:100A1000C0F80090FFF7D8FD074604E0FFF7D4FDCB
:100A2000C01B02280FD8686A8007F7D571484FF4B9
:100A3000FA510068B0FBF1F0009000BF0098411E31
:100A40000091FAD20EE080E0C0F80080FFF7BCFD14
:100A5000074604E0FFF7B8FDC01B022875D8686A96
:100A60008007F7D42078400760D5E8690027C000E8
:100A700008D4E86940F08050E861E869012700F097
:100A8000805000905C480168C90513D40168834612
:100A900041F480710160FFF797FD824606E000BFD8
:100AA000FFF792FDA0EB0A0064284ED8DBF80000A7
:100AB000C005F5D5E06801280AD008B1052813D093
:100AC000286A20F001002862286A20F0040002E071
:100AD000286A40F001002862E06841F2883B98B142
:100AE000FFF772FD82460BE0286A40F0040028629E
:100AF000EEE700BFFFF768FDA0EB0A0159455AD8A1
:100B0000286A8007F6D50CE0FFF75EFD824605E017
:100B1000FFF75AFDA0EB0A0159454CD8286A800717
:100B2000F6D41FB1E86920F08050E861E06988B32D
:100B30006968C1F38101022944D00228C6F86080A7
:100B400004D0FFF741FD044638E034E0FFF73CFDF8
:100B5000074604E0FFF738FDC01B02282BD82868A1
:100B60008001F7D4206AB0F5803F05D16868A1689C
:100B700020F4003008436860D4E90801084369683C
:100B800021F4741108436860C6F86090FFF71CFDFB
:100B9000044606E025E000BFFFF716FD001B022813
:100BA00009D828688001F7D51BE000BFFFF70CFDCE
:100BB000001B022802D90320BDE8F88F28688001B5
:100BC000F4D40EE00128F7D06868226A00F480317E
:100BD000914204D1616A00F47010884201D0012072
:100BE000EAE70020E8E7000000100240000042426F
:100BF000800442421C0000200070004010B5401EDE
:100C0000B0F1807F01D3012010BD4FF0E02460617E
:100C10000F21601700F0FFFD0020A0610720206178
:100C2000002010BD7047704770B590F83C20012A35
:100C300023D0012480F83C40022280F83D20036844
:100C40005A689D6822F070060A6832435A600C4B5D
:100C500002689A4205D0B2F1804F02D0094B9A4205
:100C600004D1496825F080031943916080F83D4024
:100C7000002180F83C10084670BD022070BD0000C5
:100C8000002C01400004004010B50448FFF700FBB1
:100C900002480349C068086010BD00002000002021
:100CA000000000202DE9F041054690F83C000C467C
:100CB000012836D0012085F83C008AB3042A42D0AE
:100CC0002868082A51D0D4E90023E168066A26F48E
:100CD00080560662C669076A26F4407646EA032310
:100CE0004FF6FF7606EA013123F4704319434FF4BF
:100CF000005627F4005306EA02321A43C161026229
:100D00002868C16921F44061C1612868C169A2688D
:100D100041EA0221C161002085F83C00BDE8F08174
:100D200001E00220FAE7D4E90012E368286800F045
:100D300051FC2868816921F00C0181612868816972
:100D4000A26811430FE0D4E90012E368286800F0BC
:100D500069FC2868816921F44061816128688169A2
:100D6000A26841EA02218161D5E7D4E90027267B08
:100D7000016A21F480710162C169036A21F00301F3
:100D8000394321F0F00731074FF4007647EA11614B
:100D900023F4007306EA02221A43C1610262286842
:100DA000C16921F00C01C1612868C169A2681143C1
:100DB000B0E710B5040003D094F83D0010B107E08F
:100DC000012010BD002084F83C00204600F01EF8F1
:100DD000022084F83D00211D206800F0BFFB0120A7
:100DE00084F8460084F83E0084F83F0084F8400010
:100DF00084F8410084F8420084F8430084F84400F9
:100E000084F8450084F83D00002010BD00B585B091
:100E1000002100910191029103910068B0F1804F8F
:100E20001ED11048C16941F00101C161C16901F0E1
:100E300001010491816941F0040181618069694681
:100E400000F004000490012000900748FFF7CEFA5C
:100E5000002211461C20FFF723FC1C20FFF712FC88
:100E600005B000BD001002400008014010B5044666
:100E700051B104290DD0082910D094F8410094F8FC
:100E80004520012811D10EE094F83E0094F842204C
:100E9000F7E794F83F0094F84320F2E794F8400015
:100EA00094F84420EDE7012A01D0012010BD022072
:100EB00051B1042911D0082918D084F8410084F8D0
:100EC00045000C291BD133E084F83E0084F8420031
:100ED0002068C26842F0020210E084F83F0084F803
:100EE00043002068C26842F0040207E084F8400032
:100EF00084F844002068C26842F00802C2600122FF
:100F0000206800F059FB0D492068884205D0B0F1F7
:100F1000804F02D00A49884204D1816801F007015C
:100F2000062903D0016841F001010160002010BDD5
:100F30002068C26842F01002E0E70000002C014087
:100F40000004004070B50446006801694FF00005D8
:100F5000C943890715D4C168C943890711D4E91E5B
:100F6000016101202077206880698007204602D037
:100F7000FFF78AFE04E000F098F8204600F096F8AB
:100F8000257720680169C943490717D4C168C94357
:100F9000490713D46FF00401016102202077206813
:100FA000806910F4407F204602D0FFF76DFE04E018
:100FB00000F07BF8204600F079F825772068016979
:100FC000C943090716D4C168C943090712D46FF091
:100FD00008010161042020772068C069800720464D
:100FE00002D0FFF751FE04E000F05FF8204600F069
:100FF0005DF8257720680169C943C90617D4C1681F
:10100000C943C90613D46FF010010161082020778D
:101010002068C06910F4407F204602D0FFF734FEFC
:1010200004E000F042F8204600F040F82577206800
:101030000169C943C90708D1C168C943C90704D1B7
:10104000891E0161204600F033F820680169C94318
:10105000090609D4C168C943090605D46FF08001A7
:1010600001612046FFF7DEFD20680169C94349069A
:1010700009D4C168C943490605D46FF04001016134
:10108000204600F030F820680169C94389060BD476
:10109000C168C943890607D46FF020010161204669
:1010A000BDE87040FFF7BFBD70BD704770470000DE
:1010B000014800F096B90000200000200246002000
:1010C00041B1042909D008290AD00C2901D110689E
:1010D000006C70471068406B70471068806B7047F9
:1010E0001068C06B7047704770477047F8B502686A
:1010F00004461068D168536910F00F0F4FF00005D7
:1011000053D003F0010601F4907737435FD0C20754
:1011100005D0CA0503D5226C42F0010222644207C1
:1011200005D5DA0703D0226C42F00202226482075E
:1011300005D5DA0703D0226C42F0040222640207CC
:1011400007D501F02002324303D0226C42F008029E
:101150002264226C002A34D0800604D5880602D589
:10116000204600F09AFA20684069216CC0F3801094
:10117000090700D430B3204600F077FA20684169AF
:1011800049061BD5416921F040014161A06BA8B11E
:1011900058494163A06BFFF7CBF8002811D0A06B32
:1011A000416B01B0BDE8F040084783060FD58B06C0
:1011B0000DD52046BDE8F84000F06FBA2046FFF795
:1011C00094FFF8BD2046FFF790FF2564F8BD266B1D
:1011D0002023012E52D1C60650D5CE064ED510681A
:1011E00050680090506940062AD5A16B0868406895
:1011F0000004000CEAD0A68D8642E7D9E085886914
:10120000202818D0D06820F48070D0602068416910
:1012100021F0010141612068416921F040014161F3
:1012200084F83E3025632068C16821F01001C16058
:10123000A06BFFF75AF8A08DE18D401A81B219E03A
:10124000A08DE18D401A81B2E08D0028BED000292A
:10125000BCD0D06820F49070D0602068426922F041
:101260000102426184F83E3025632068C26822F0A2
:101270001002C2602046FFF737FFF8BD05062BD5E8
:101280000D0629D594F83D002128F6D1A068B0F5C7
:10129000805F01D12069B0B1206A411C21622168C0
:1012A00000784860E08C401E0004000CE084E4D12B
:1012B0002068C16821F08001C1602068C16841F0E8
:1012C0004001C160F8BD206A0088C0F3080050608A
:1012D000206A801C2062E5E74006F3D54806F1D578
:1012E000D168204621F04001D16084F83D3000F003
:1012F00076F8F8BD5B16000870B5040004D094F8C9
:101300003D00002510B106E0012070BD84F83C507E
:10131000204600F023F8242084F83D002068C168AE
:1013200021F40051C160204600F012FA20680169E2
:1013300021F4904101612068416921F02A01416155
:101340002068C16841F40051C1602564202084F800
:101350003D0084F83E00002070BD000030B585B02F
:101360000024009401940294039400681849884270
:101370002CD11848816941F480418161816901F46F
:1013800080410491816941F0040181618069124DBD
:1013900000F0040004904FF40070009002200190CF
:1013A0000320039069462846FFF720F82815CDE969
:1013B0000004694628460294FFF718F800221146F7
:1013C0002520FFF76DF92520FFF75CF905B030BD4A
:1013D000003801400010024000080140704770478B
:1013E000FEE701684868B0F5806F01D840004860AA
:1013F000704710B5029C112C00D811244C608260FB
:10140000C0E9001310BD000070B586B00024184874
:101410000094019402940394816941F01001816168
:10142000816901F010010491816941F0200181611D
:10143000816901F020010491816941F00401816119
:1014400080690C4E00F004004FF400550490002217
:1014500029463046FFF7B2F801200095CDE9010496
:101460000220039069463046FEF7C0FF06B070BD0B
:10147000001002400010014010B586B0002418484A
:10148000059404940094019402944FF080410394D5
:1014900001604721C0E901144FF6DC71C0E9031473
:1014A0008461FFF786FC08B172B6FEE7049404A9D4
:1014B0000B480594FFF7B8FB08B172B6FEE70120B0
:1014C000CDE9004002940022694605480394FFF7E5
:1014D000E9FB002801D072B6FEE706B010BD00009F
:1014E00030000020FEE7FEE770477047FFF772B854
:1014F00030B58FB028216846FEF766FE14210AA891
:10150000FEF762FE01210804CDE9001000240294D8
:1015100002250491CDE907504FF4E0100990684688
:10152000FFF7DCF908B172B6FEE70F20CDE90A0536
:101530004FF48060CDE90C4002210AA80E94FFF719
:10154000E1F8002801D072B6FEE70FB030BD704759
:101550000148FFF7F7BC00003000002070B50268BA
:10156000134B144C4FF08046984203D0B04201D048
:10157000A04203D122F070054A682A43984203D062
:10158000B04201D0A04203D122F44074CA68224381
:101590004C6922F08002224302608A68C2620A68B3
:1015A0008262984201D1096901630121416170BDE4
:1015B000002C01400004004010B501F01F03012180
:1015C000046A99408C430462016A9A4011430162A3
:1015D00010BD000070B5046A24F00104046284693F
:1015E000056A0E4EB04205D0B0F1804F02D00C4ECD
:1015F000B04203D124F00304144301E044F0010499
:101600001A0724F0F00444EA126225F00A0301F0FC
:101610000A0119438261016270BD0000002C014083
:101620000004004030B5046A24F0100404628469A8
:10163000056A24F4407444EA022222F470444FF60E
:10164000FF7202EA03322243A02425F0A00304EA39
:10165000011119438261016230BD10B5406A002159
:10166000C185C184FFF741FD10BD0168CA6822F43D
:101670009072CA6001684A6922F001024A61016BF6
:10168000012904D10168CA6822F01002CA60202131
:1016900080F83E1000210163704708B590F83E10B5
:1016A000222901D0022008BD82684FF480539A425B
:1016B00001D1016921B1816A9A421BD04AB10AE085
:1016C0000268816A5268C2F308020A80816A891C32
:1016D00008E0026972B10268526802F07F020A7083
:1016E000816A491C8162C18D491E0904090CC185AA
:1016F00003D019E002685268F1E70168CA6822F075
:101700002002CA600168CA6822F48072CA60016857
:101710004A6922F001024A61202180F83E10016BE3
:10172000012903D0FFF75AFE002008BD0021016304
:101730000168CA6822F01002CA6001680A68D2060D
:1017400002D50A6849680091818DFFF7CDFCEBE76F
:1017500070B5044600680169E26821F44051114304
:1017600001612169A0680843616908432168CA686A
:1017700041F20C639A430243CA6020684169A2693E
:1017800021F44071114341611E492068884202D111
:10179000FFF75EF801E0FFF74BF800EBC00101EB4B
:1017A0000012606864218000B2FBF0F3B3FBF1F338
:1017B0006FF018067343B2FBF0F5B2FBF0F605EBE1
:1017C0008305322303EB0515B5FBF1F5B6FBF1F606
:1017D00005F0F00505EB0615B2FBF0F6B2FBF0F0F4
:1017E000B0FBF1F06FF01802504306EB800003EB02
:1017F0000010B0FBF1F0216800F00F002844886071
:1018000070BD0000003801400148FFF76FBC0000C8
:1018100078000020FEE70907090E002804DB00F12C
:10182000E02080F80014704700F00F0000F1E02085
:1018300080F8141D7047000008B5FEF7D3FEFFF7CF
:1018400057FEFFF7E1FDFFF717FE1C481A49002479
:1018500001604FF4E131C0E901140C21C460C0E91A
:1018600004418461C461FFF747FD08B172B6FEE729
:101870001249482348390022A1F110000094FFF7D3
:10188000B8FD0E4800214838FFF7F0FA0B4C483CF1
:101890002068C16841F00101C160094F094D4FF452
:1018A00000560A20FEF790FD31463846FEF77EFED0
:1018B0002068406A6860F4E7003801407800002042
:1018C00000100140000000200000000000000000A7
:1018D00001020304060708090000000001020304D6
:1018E0000019000800000020200000002801000866
:1018F0002019000820000020000700004401000813
:1019000000000000000000000000000000000000D7
:101910000100000010000000000000000024F4009E
:04000005080000ED02
:00000001FF
