:020000040800F2
:10000000301B0020290200082F15000801140008E9
:100010002D1500081F0400080B1800080000000040
:100020000000000000000000000000003315000880
:1000300061040008000000003115000835150008B3
:10004000430200084302000843020008430200087C
:10005000430200084302000843020008430200086C
:10006000430200084302000843020008430200085C
:10007000430200084302000843020008210400086C
:10008000430200084302000843020008430200083C
:10009000430200084302000843020008430200082C
:1000A000430200084302000843020008430200081C
:1000B000430200084302000843020008430200080C
:1000C00043020008430200084302000843020008FC
:1000D00043020008430200084302000843020008EC
:1000E00065040008430200084302000843020008B8
:1000F00043020008430200084302000843020008CC
:1001000043020008430200084302000843020008BB
:100110004302000843020008ED15000843020008EE
:10012000430200084302000843020008430200089B
:10013000430200084302000843020008430200088B
:10014000430200084302000843020008430200087B
:10015000430200084302000843020008430200086B
:10016000430200084302000843020008430200085B
:100170004302000843020008430200080000000098
:10018000430200084302000800F002F800F03CF8C7
:100190000AA090E8000C82448344AAF10107DA45E2
:1001A00001D100F031F8AFF2090EBAE80F0013F0F8
:1001B000010F18BFFB1A43F0010318478018000015
:1001C000A0180000103A24BF78C878C1FAD85207A6
:1001D00024BF30C830C144BF04680C6070470000C1
:1001E0000023002400250026103A28BF78C1FBD840
:1001F000520728BF30C148BF0B6070471FB501F0E0
:1002000002FC1FBD10B510BD00F0D0F81146FFF77D
:10021000F5FF01F02BFB00F0EEF803B4FFF7F2FF5F
:1002200003BC00F0F5F80000094880470948004782
:10023000FEE7FEE7FEE7FEE7FEE7FEE7FEE7FEE796
:10024000FEE7FEE704480549054A064B70470000F3
:10025000DD1500088901000890010020301B0020F6
:10026000900B0020900B002053EA020C00F06980F4
:100270002DE9F04B4FF00006002B1FBFB3FA83F5BA
:1002800003FA05F424FA05F65E4012BF1643B2FAEB
:1002900082F502FA05F4C5F120051EBF22FA05FC1D
:1002A00044EA0C04203556EA044C4FEA144418BFC3
:1002B000641C4FF000084FF00009904271EB030CF2
:1002C00039D3002919BFB1FA81F701FA07F6B0FA5C
:1002D00080F700FA07F6C7F120071EBF20FA07FCD7
:1002E00046EA0C062037B6FBF4FCA7EB0507103FE7
:1002F00007F01F0BCBF120062CFA06F60CFA0BFBCD
:1003000044BFB3460026202FA4BF5E464FF0000B2B
:100310005BEA060C08BF4FF0010B19EB0B0948EB29
:100320000608ABFB027C06FB02CC0BFB03CCC01B1C
:1003300071EB0C01C1E70B46024641464846BDE859
:10034000F08B13B5084318BF4FF0FF300146AFF3F1
:100350000080BDE81C4070474FF0000200B5134616
:1003600094469646203922BFA0E80C50A0E80C50D5
:10037000B1F12001BFF4F7AF090728BFA0E80C5086
:1003800048BF0CC05DF804EB890028BF40F8042B7F
:1003900008BF704748BF20F8022B11F0804F18BFEC
:1003A00000F8012B7047704770477047754600F0A2
:1003B0002BF8AE4605006946534620F007008546F7
:1003C00018B020B5FFF73EFFBDE820404FF0000613
:1003D0004FF000074FF000084FF0000BAC46ACE8C0
:1003E000C009ACE8C009ACE8C009ACE8C00921F01C
:1003F00007018D46704710B50446AFF300802046D4
:10040000BDE81040FFF709BF00487047100000200A
:1004100001491820ABBEFEE7260002007047FEE748
:10042000014800F04FB800BF9800002010B50168E7
:100430006FF00F0252FA81F21823B2FBF3F306A415
:10044000E35C40F2FF34A1435F2A88BF0431C0E976
:100450001613084610BD00BF000610160006101641
:1004600070470000124813490068C0F34020095645
:10047000114802681144016002680168002A06D42C
:1004800042F2107291FBF2F303FB12110BE04942AE
:100490000160016842F2107291FBF2F303FB12114A
:1004A00001600168494201604FF4806000F050B97A
:1004B00010000240381A000884010020EFF3108079
:1004C00072B6FEE7F8B5044600200090D4E9166045
:1004D000574A082115683768814039420CD0226894
:1004E00013685B0708D5136823F004031360B16039
:1004F000616D41F00101616501218140394208D0FF
:1005000022685269120604D5B160616D41F00201A2
:10051000616504218140394208D02268126892073F
:1005200004D5B160616D41F0040161651021814025
:10053000394217D020680268120713D5B1600268EB
:100540000168520306D4C90506D4016821F00801E8
:10055000016001E0080301D4216C00E0A16C09B145
:1005600020468847E16D202000FA01F23A423BD054
:1005700020680368DB0637D5B26094F8353002682E
:10058000052B19D122F016020260426922F0800286
:100590004261226C0AB9A26C1AB1026822F0080208
:1005A00002603F208840B060002084F834000120C1
:1005B00084F83500216D37E0016852030CD4C90579
:1005C0000ED4016821F010010160002084F834008D
:1005D000012084F8350003E0080301D4616C00E0D9
:1005E000E16B09B120468847606D00B3606DC007BC
:1005F00019D0052184F8351021684FF416500A6887
:10060000B5FBF0F022F001020A60009A013282424A
:10061000009202D80A68D207F7D1002084F834008B
:10062000012084F83500E16C09B120468847F8BD07
:10063000080000202DE9F041044600F065F9ACB156
:100640000546022084F83500002084F83400216833
:10065000086820F0010008600868C00709D000F0B1
:1006600053F9401B052837D82168F5E70120BDE87C
:10067000F0810868344A271DE8CF00EA020E43EAF9
:100680000E032B43D4E9050C33433B43D4E907283D
:10069000184340EA0C00636A104340EA0802042B46
:1006A0001ED1D4E90A53206B1A431043086051F855
:1006B000140F20F0030040EA050040F00402B3B13B
:1006C000BCF5005F24D0BCF1000F31D1022D32D037
:1006D000012D27D07DB30AE003262027032012E056
:1006E0000A6051F8140F20F0070040EA0302204688
:1006F0000A60FFF79BFEE16D3F2202FA01F1816083
:10070000002701260020676584F83560BDE8F08188
:10071000032DECD8012640270120DFE805F0020C6C
:100720000203F0E7A3F1C070B0FA80F0400904E0E2
:10073000032D04D3DBD1C3F300600028D7D00126FA
:1007400040270120DFE700BF3F8010F07047000026
:1007500003490A68024214BF08607047FFF7F6BFFA
:10076000143C01402DE9FC4F614A08249042614A43
:1007700008BF072402444FEAB2234FF0010B4FF0A9
:1007800000094FF0000E4FF0000A072B38BF4FEA68
:10079000B2240094BEF1200F08BFBDE8FC8F0F68A3
:1007A0000BFA0AF6374200F09C804F6807F0030806
:1007B000A8F10104012C19D80322856802FA0EF46D
:1007C00025EA040CCD684FEA4A0205FA0EF545EA1F
:1007D0000C058560C7F3001505FA0AFC4568B543AA
:1007E00045EA0C056FEA040C45600CE0032404FAAA
:1007F0000EF46FEA040CB8F1030F724603D172468F
:100800004FF003081FE0C4688D6804EA0C049540AB
:100810002C43B8F1020FC46015D109F01C040F235A
:1008200003FA04F86FF0030303EA5A0707443D6A2A
:1008300025EA08080D6905FA04F444EA08043C6254
:100840004F6807F00308056808FA02F405EA0C058A
:100850002C4317F4403F046043D000220192284A01
:100860002AF00307146844F48044146014680F22CB
:1008700004F48044019409F00C0402FA04FC1E4ABA
:10088000019D134617441F4A9046BD58009A25EA19
:100890000C0502FA04F42C4347F808401C684F6822
:1008A00044EA0605FA0358BF24EA06051D605A68A3
:1008B000BD0342EA060458BF22EA06045C609A6857
:1008C000FD0242EA060458BF22EA06040B4A9C6075
:1008D00013461268BD0242EA060458BF22EA060423
:1008E0001C6009F104090EF1020E0AF1010A51E738
:1008F000001C02400000FEBF003C01400C3C0140D7
:100900004438024008FCFFFF05480068704700BFFC
:100910001F48034900780A6810440860704700BF08
:100920008801002080B50B48016841F40071016026
:10093000016841F480610160016841F480710160E7
:10094000032000F06DF80F2000F006F800F022F808
:10095000002080BD003C024070B50D4E044630784A
:100960004FF47A71B1FBF0F089490968B1FBF0F0FE
:1009700000F0D4FA01250F2C08D838B94FF0FF3019
:1009800021460022002500F02FF87460284670BD33
:100990000000002082B000200B4901904A6842F418
:1009A00080424A604A6802F480420192019A0090B3
:1009B000086840F080500860086800F0805000909F
:1009C000009802B0704700BF40380240002808D4A9
:1009D00000F01F01012202FA01F1024A400942F827
:1009E0002010704700E100E0B0B5134B4FF0FF3529
:1009F0001B68C3F30223DC1E83F0070338BF002407
:100A0000042B28BF042305FA03F3994305FA04F3E2
:100A1000A1409A431143BDE8B04000F0F7BE00BFCB
:100A200005494FF6FF030A681A4060F30A2203489B
:100A300010430860704700BF0CED00E00000FA05AD
:100A40002DE9F041002800F08680444B0446D3F89D
:100A50000004884600F00700884207D283F800842B
:100A6000D3F8000400F00700404574D120688107E6
:100A700011D5410703D5996841F4E0519960010708
:100A800003D5996841F460419960A1689A6822F0A1
:100A9000F00211439960C0072BD06068811E0229C3
:100AA00003D21968890109D455E0012803D11968D6
:100AB000890303D44FE0196889074CD599681D460E
:100AC00021F0030108439860FFF71EFF064641F23C
:100AD00088376068A9682B4601F00C01B1EB800FE4
:100AE00007D0FFF711FF801BB842F2D90320BDE801
:100AF000F081D3F8000400F00700404507D983F8DF
:100B00000084D3F8000400F00700404523D120689A
:100B1000410705D5E1689A6822F4E05211439960D3
:100B2000000706D52069996821F4604141EAC000B8
:100B300098601C4600F032F8A168094AC1F303111D
:100B4000515CC8401249086006480068FFF704FF7E
:100B50000020BDE8F0810120BDE8F08100380240AE
:100B6000201A00080400002009480A4900680968A2
:100B7000094AC1F38221515CC840704704480549C5
:100B800000680968044AC1F34231515CC8407047AB
:100B90000800002008380240301A000810B5134C35
:100BA000606800F00C011248082903D004291CD108
:100BB000104810BD2168236801F03F0221685B02E4
:100BC000C1F3881105D4A1FB00010023FFF74CFB02
:100BD00003E008484843B0FBF2F021680222C1F369
:100BE000014102EB4101B0FBF1F010BD04380240BD
:100BF0000024F40000127A002DE9FC41002800F0E6
:100C0000D08004460078C24EC00744D0B06800F0DF
:100C10000C00042805D1306880033CD56068D0BB47
:100C2000BFE0B06800F00C00082802D170684002F4
:100C3000F1D46768B7F5803F06D03068B7F5A02FCC
:100C400012D140F480203060306840F48030306051
:100C5000FFF75AFE0546306880031CD4FFF754FEA8
:100C6000401B6428F7D9DFE020F480303060306822
:100C700020F480203060FFF747FE0546002FEAD1C0
:100C800006E0FFF741FE411B0320642900F23E818C
:100C900030688003F5D4207880072CD5B06810F038
:100CA0000C0F07D0B06800F00C00082809D170685C
:100CB000400206D43068800716D5E068012813D0BA
:100CC0006FE0E068002800F0D080924801210160C8
:100CD000FFF71AFE05463068800705D4FFF714FEBB
:100CE000401B0228F7D99FE02069316821F0F80104
:100CF00041EAC00030602078000720D5616985484E
:100D000071B10121C0F8801EFFF7FEFD0546706F2E
:100D1000800714D4FFF7F8FD401B0228F7D983E0C1
:100D20000021C0F8801EFFF7EFFD0546706F8007B9
:100D300005D5FFF7E9FD401B0228F7D974E02078BC
:100D4000400731D4A769002F00F0DF80B06800F0C1
:100D50000C0008286BD1012F23D0E169706800F4E2
:100D600080028A421DD1216A00F03F028A4218D1D6
:100D700047F6C071626A0140B1EB821F11D1A16ACE
:100D80004FF6FF72C9039143A1F5803100F4403260
:100D90008A4206D1E16A00F07060B0EB016F00F0AA
:100DA000B4800120BDE8FC81306C4FF00008C00029
:100DB0000CD4CDF80480306C4FF0010840F0805026
:100DC0003064306C00F0805001900198524F3868C8
:100DD000C0050FD4386840F480703860FFF794FD88
:100DE00005463868C00505D4FFF78EFD401B022874
:100DF000F7D919E0A768012F05D0306F052F45D12D
:100E000040F004003067306F40F001003067FFF7BA
:100E10007BFD054641F28837306F80074ED4FFF7DF
:100E200073FD401BB842F7D90320BDE8FC81394966
:100E3000002088460866FFF767FD0546022F0AD1A5
:100E400047463068800142D5FFF75EFD411B032015
:100E50000229F6D95AE03068800156D5FFF754FDD3
:100E6000411B03200229F6D950E02A4800210160E5
:100E7000FFF74AFD0546306880077FF53CAFFFF776
:100E800043FD411B03200229F5D93FE020F001007A
:100E90003067306F20F004003067FFF735FD0546FE
:100EA000002FB7D141F28837306F800706D5FFF7A2
:100EB0002BFD411B0320B942F6D927E0B8F1000F02
:100EC0003FF440AF306C20F0805030643AE71C347F
:100ED0001FCC084340EA8210D9034FF6FF729143BA
:100EE00040EA0460A1F58031084370600120386653
:100EF000FFF70AFD04463068800106D4FFF704FDC1
:100F0000011B03200229F6D900E00020BDE8FC8186
:100F1000003802400000474200700040411E00209F
:100F2000B0EB116F1CBF01207047044AF0235160E1
:100F300003490B70072190601160704710E000E0DA
:100F400023ED00E07047704710B590F83C30022266
:100F5000012B30D080F83D20012280F83C2002682F
:100F60000B685468B2F1804F24F0700444EA030423
:100F70009368546014D0504CA24211D04F4CA242FE
:100F80000ED04F4CA2420BD04E4CA24208D04E4C39
:100F9000A24205D04D4CA24202D04D4CA24204D1F7
:100FA000496823F08003194391600022012180F8F1
:100FB0003C2080F83D10104610BD00BF40B310B576
:100FC000044690F83D0028B9002084F83C002046F3
:100FD00000F020F8022084F83D002068211D00F078
:100FE0000FFB012084F8460084F83E0084F83F009F
:100FF00084F8400084F8410084F8420084F84300FB
:1010000084F8440084F8450084F83D00002010BDB9
:1010100001207047E0B500680C49884218BF8CBDBC
:10102000002001900A480022016841F0100101608F
:101030000068002100F01000019001983620FFF7B1
:10104000D3FC3620BDE88C40FFF7C0BC0010004048
:101050004038024090F83D1001291CBF0120704724
:10106000022180F83D100068C168B0F1804F41F066
:101070000101C16014D01049884211D00F49884243
:101080000ED00F4988420BD00E49884208D00E4935
:10109000884205D00D49884202D00D49884204D1CA
:1010A000816801F00701062903D0016841F00101C0
:1010B00001600020704700BF0004004000080040AD
:1010C000000C0040001800400000014000400140BA
:1010D00000040140704710B50446006801698907A3
:1010E00044BFC1685FEA817139D40169490744BFCF
:1010F000C1685FEA41713ED40169090744BFC16814
:101100005FEA017144D40169C90644BFC1685FEA5E
:10111000C16149D40169C9071CBFC1685FEAC171D7
:101120004FD10169090644BFC1685FEA016150D42B
:101130000169490644BFC1685FEA416151D4016950
:10114000890644BFC1685FEA816100D410BD6FF0B9
:10115000200101612046BDE81040FFF7F4BE6FF0AA
:1011600002010161012121778069800741D0204679
:10117000FFF7B0FF43E06FF0040101610221217726
:10118000806910F4407F3ED02046FFF7A3FF40E087
:101190006FF00801016104212177C06980073CD00C
:1011A0002046FFF797FF3EE06FF010010161082134
:1011B0002177C06910F4407F39D02046FFF78AFFBD
:1011C0003BE06FF001010161204600F03CF820682F
:1011D000A7E76FF0800101612046FFF7B3FE2068AA
:1011E000A6E76FF040010161204600F02DF820686D
:1011F000A5E7204600F025F8204600F023F800205F
:101200002077206871E7204600F01BF8204600F0A8
:1012100019F80020207720686EE7204600F011F8CA
:10122000204600F00FF80020207720686BE720466A
:1012300000F007F8204600F005F80020207720682D
:1012400068E7704770477047704750B310B5044661
:1012500090F83D0028B9002084F83C00204600F0BA
:1012600023F8242084F83D002068C16821F400514F
:10127000C160204600F02EFA2068016921F49041F7
:101280000161416921F02A014161C16841F40051C5
:10129000C16000202021206484F83D1084F83E10B5
:1012A00010BD012070470000F0B587B0044602A8C9
:1012B0001421FFF751F821689B4881423ED1002656
:1012C0007A4F01963969022241F400213961396966
:1012D00000F5DA3001F40021019101990196396895
:1012E00041F001013960396801F0010101910821E3
:1012F00006910321CDE90461CDE90212019902A909
:10130000FFF730FA0E4D4FF40030C5E908064FF4F0
:10131000806040214FF0006207F52153C5E900329B
:10132000C5E90216C5E904062846C5E90666FFF7C1
:1013300081F908B1FFF7C2F8AC63656307B0F0BD8F
:10134000980000202DE9F047044690F83D00202841
:101350000AD10D460120002950D01646002A4DD052
:1013600094F83C00012802D10220BDE8F0874FF03C
:10137000000A0120C4F840A084F83C0021209946CE
:1013800084F83D00FFF7C0FAE684A6848046A06892
:10139000B0F5805F06D127690026002F0CBF2E46CE
:1013A0002F4601E02F46002684F83CA0E08CB8B11F
:1013B0002046802142464B4600F0F0F9B8B927B1EB
:1013C00017F8010B2168486006E036F8021B206818
:1013D0006FF35F2141600027E08C0138E084E5E78E
:1013E0002046402142464B4600F0D8F910B1032078
:1013F000BDE8F087202084F83D000020BDE8F0879C
:10140000FEE70000E0B500200190284800220168B6
:1014100041F4001101600068002100F40010019007
:1014200001980F20FFF7E0FA0F20BDE88C40FFF78E
:10143000CDBA00BF70B586B000201C49CDE90400CC
:1014400000900A68022642F080020A600A68184C7E
:1014500002F080020092009A00900A6801AD42F00A
:1014600001020A60096801F001010091CDE902065C
:101470004FF400700190009820462946FFF772F95A
:101480004FF48810039602904FF48060019020463C
:101490002946FFF767F9282000210022FFF7A4FA68
:1014A0002820FFF793FA06B070BD00BF3038024025
:1014B000000002401CB551480D4B002441F2883118
:1014C00029228461C0E90032C0E90241CDE900442B
:1014D000FFF774FD08B1FEF7F1FF48486946CDE912
:1014E0000044FFF731FD08B1FEF7E8FF1CBD00BF67
:1014F0000010004010B50B480B4C00210C224FF49B
:10150000E133C0E90043C0E90211C0E90412C0E9B7
:101510000611FFF79AFE18B1BDE81040FEF7CEBFE6
:1015200010BD00BF40010020004C0040FEE7FEE778
:1015300070477047FFF7ECB9B0B592B0002401A82E
:101540001421CDE90A44CDE90844FEF705FF2148FE
:1015500000940168022541F080510160006800F0AC
:101560008050009000981C480094016841F480412C
:1015700001600068A82100F48040009004201190D0
:101580001095CDE90E014FF48000CDE90C504FF4D9
:101590008030079001200690009806A8FFF72CFBEA
:1015A00018B1EFF3108072B6FEE74FF4805005904B
:1015B0004FF4A05004900F20CDE90254019001A8EF
:1015C0000521FFF73DFA18B1EFF3108072B6FEE780
:1015D00012B0B0BD403802400070004002480168BF
:1015E00041F470010160704788ED00E0024801217C
:1015F0000170C348FFF76FBD70000020F8000020A5
:10160000B0B50268B0F1804F0ED0274B98420BD096
:10161000264B984208D0264B984205D0254B98423D
:1016200002D0254B984203D14B6822F070021A4336
:10163000B0F1804F20D01C4B98421DD01B4B9842DC
:101640001AD01B4B984217D01C4B984214D01C4BFD
:10165000984211D01B4B98420ED0174B98420BD09A
:10166000144B984208D0184B984205D0174B98421B
:1016700002D0174B984203D1CB6822F440721A4330
:101680004D690B688C6822F080022A430260C462B4
:101690008362084B40F480629A4204BF0969016387
:1016A00001214161B0BD00BF0004004000080040BE
:1016B000000C004000040140000001400018004000
:1016C000001C004000200040004001400048014054
:1016D00000440140B0B50446006804F108030ECB95
:1016E0000569194325F440552A430261C2686369BC
:1016F00049F20C651943E369AA4319431143C160D8
:101700004169A26921F4407111434161224940F4C9
:101710008060884202D1FFF731FA01E0FFF724FA36
:10172000E26919216368A0FB0101B2F5004F18D1ED
:101730005A00DB0FFEF798FD6421B0FBF1F26FF069
:10174000630302FB0300322303EBC000B0FBF1F1A3
:101750004FF4F87000EA410000EB021001F00701BD
:1017600015E09A009B0FFEF77FFD6421B0FBF1F2BC
:101770006FF0630302FB0300322303EB0010B0FBA6
:10178000F1F101F0F00000EB021001F00F0108434D
:1017900021688860B0BD00BF001401402DE9F04110
:1017A0001D4690460F4604465E1C2068006838407F
:1017B000B84227D0002EF8D02DB1FFF7A5F8A0EB46
:1017C0000800A842F1D9206850E8030F216820F4EE
:1017D000D07041E80302002AF5D1206850E8050FD7
:1017E000216820F0010041E80502002AF5D12020FF
:1017F000002184F83D0084F83C1084F83E0003206A
:10180000BDE8F0810020BDE8F081FEE710B5074C8F
:1018100000F00F032344044AB0F1FF3FC8BF831810
:101820000801187010BD00BF00E400E014ED00E0F6
:10183000F0B5012500244FF0FF0C002601272B46B0
:101840008C4210D2055D4DB10137D554FDB2013344
:101850000134FF2DF4D102F806C001E097550134A0
:101860005D1C1E46EAE718469755F0BDFFF75AF88B
:10187000FFF762FEFFF7DEFDFFF7C4FDFFF71AFE7C
:10188000FFF738FE1E48FFF7E5FB1E4EDFF87880B5
:101890009FED1E8A9FED1E9A1E4D00274FF0700986
:1018A00006F1180430780128FCD198ED000A377051
:1018B000B8EEC00A20EE080A80EE090A10EE100AFF
:1018C000010E86ED010A70723173010CF172010A8A
:1018D000B17200F027F841EC100B304686ED040B96
:1018E00000F8089F05212246FFF7A2FF2754013088
:1018F00082B2284621466423FFF724FDD2E700BFC9
:10190000F800002070000020840100200000B44393
:1019100000401C46400100200808A0F500114FEAD5
:101920003101704743004FEAD30C4FEA3C0C43406F
:101930001FBF40070CF1605113F0FE4F70471CF0C1
:10194000006F03D10CF00041002070470CF0004301
:1019500043EA507040EACC0010B500F00EF800BF2A
:10196000000000924FEA0001FFF7D6BF4FF00041A0
:10197000A1F500214FF0000070470EF1020E2EF08D
:10198000030E5EF8044B244204D44FEA4102B2F144
:101990007F4F11D84FEA4003B3F17F4F0CD80ED1DF
:1019A0004FEAD07C0CEB4C0C0CF1020CB2F17F4FE7
:1019B00008BF4CEBD17C04E04FF0080C01E04FEA8B
:1019C000D17C0CEB4C0324FA03F404F00704B4F1CB
:1019D000040C06D20EEB840CBDE810404CF0010C58
:1019E0006047DFE80CF0070802024FF00040A0F566
:1019F000800010BD0846420018BFD2F1807288BF37
:101A000000F0004010BDF1EE100A4FF6FF71C0F279
:101A1000C03120EA010040F04070E1EE100A70474A
:101A2000000000000000000001020304060708098E
:101A30000000000001020304FF010000601A00081A
:101A40000000002010000000C4010008701A000807
:101A500010000020201B0000E00100080000000032
:101A600001000000100000000024F400000000004D
:040000050800018965
:00000001FF
