:020000040800F2
:1000000068080020A1010008FB240008D72200088E
:10001000F9240008D7110008AD29000800000000ED
:10002000000000000000000000000000D9250008CA
:10003000D911000800000000FD2400085D2600081A
:10004000BB010008BB010008BB010008BB010008A0
:10005000BB010008BB010008BB010008BB01000890
:10006000BB010008BB010008BB010008BB01000880
:10007000BB010008BB010008BB010008BB01000870
:10008000BB010008BB010008BB010008BB01000860
:10009000BB010008BB010008BB010008BB01000850
:1000A000BB0100082D270008BB010008BB010008A8
:1000B000BB0100083927000800000000BB01000850
:1000C000BB0100080000000000000000BB010008A8
:1000D00000000000BB010008BB0100080000000098
:1000E000BB010008BB010008BB01000800F002F8DA
:1000F00000F047F80AA090E8000C82448344AAF17B
:100100000107DA4501D100F03CF8AFF2090EBAE878
:100110000F0013F0010F18BFFB1A43F0010318473B
:10012000F032000010330000103A24BF78C878C1C4
:10013000FAD8520724BF30C830C144BF04680C60ED
:10014000704700000023002400250026103A28BF35
:1001500078C1FBD8520728BF30C148BF0B60704739
:10016000662903F0FD80002070471FB500F0F6FA05
:1001700004000020002102F085FDE0601FBD10B5E5
:1001800010BD00F0EBFB1146FFF7EFFF02F094FC0F
:1001900000F009FC03B4FFF7F2FF03BC00F04CFCD5
:1001A0000948804709480047FEE7FEE7FEE7FEE70B
:1001B000FEE7FEE7FEE7FEE7FEE7FEE70448054947
:1001C000054A064B7047000029270008ED0000088B
:1001D00068020020680800206804002068040020ED
:1001E0000FB41CB5074B06AA7B44694600900598DE
:1001F00000F09BFA0020694600F0AAFA1CBC5DF8EA
:1002000014FB0000650500002DE9F0410E46044690
:10021000002020622046E168884730B3252805D0B9
:10022000D4E901219047206A401CF2E7E1682046AA
:1002300000278847050018D0A5F14100192802D8E9
:1002400020354FF400673246294620462760FFF7E5
:1002500087FF40B1012804D0F61D26F007060836B6
:10026000D8E7361DD6E72846DAE7206ABDE8F081F0
:1002700010B5431C02E010F8011B71B18107FAD1DF
:100280004FF0013202C88C1A8C4314EAC211F9D023
:10029000C01A0A0603D0C01E10BDC01A10BD0A0441
:1002A00001D0801E10BD0902FCD0401E10BD4FF0D1
:1002B000000200B5134694469646203922BFA0E8B6
:1002C0000C50A0E80C50B1F12001BFF4F7AF0907C2
:1002D00028BFA0E80C5048BF0CC05DF804EB8900B3
:1002E00028BF40F8042B08BF704748BF20F8022BF6
:1002F00011F0804F18BF00F8012B7047704770470E
:10030000704770472DE9FF4F0C461E464FF0FF37F0
:100310008BB0D2E90001DDF860800A908A46C1F313
:100320000A5505B93D46002108464FF00000BAF1D4
:10033000000F00F4400005DA00EB80004FF44001AC
:1003400001EA50004FEA9059B9F1010F00DDB946BA
:100350000A9850EA4A000ED044F61050A5F2FF3534
:1003600045432F14B8F1000F1ED07542291E1EDD23
:10037000C9F100021CE0B8F1010F4FF0000001D0FC
:10038000302103E0F24305E02154401CB042FBDB86
:1003900030460022002121540B99C1F80880C1E9A0
:1003A00000200FB0BDE8F08FBD1B6D1CDEE74A4694
:1003B00000DA694206A800F05BFA06AB93E8070092
:1003C00003AB83E8070050460A9900F03CFB8DE838
:1003D0000700A0F500501F3800900398002D0ADD9B
:1003E00042F21F014A460844002303A903906846CD
:1003F00000F0A5FD09E0A0F500504A461F38002393
:1004000003A90390684600F0AFFD8DE807000004E3
:10041000000C03D04FF0FF30410800E01046B8F167
:10042000000F03D00022009215461EE0751E05D471
:1004300000F098F9303262556D1EF9D5B3460122AD
:10044000084302D000227F1C04E02078302801D12C
:1004500000227F1E002A099784D01DE0112D07DAA3
:1004600000F080F9303262556D1C50EA0102F5D17E
:10047000084302D00098C8B10EE00021681E05E0D4
:10048000235C625C63542254401E491C8142F7DBAA
:10049000AB46A81B401E0990002004F80B000B98E7
:1004A000099AC0F80880C0E9002B7AE711264FF0BE
:1004B000000857E72DE9F04F88460446D21D22F088
:1004C000070191B0D1E90001CDE90A0102F06FFA0C
:1004D00002460B98C00F01D02D2007E0206881074D
:1004E00001D52B2002E0202101EAC000032A099057
:1004F00001D0072A05DB03464146204600F078F983
:100500000BE12078800601D5E06900E00620B8F113
:10051000650F814606D0B8F1660F18D0B8F1670FA5
:1005200070D131E00020B9F1110F009001DB1123EF
:1005300001E009F101030AAA01A90CA8FFF7E2FEF4
:10054000DDE90C70002609F10105834647E0012032
:100550004B4600904FF000470AAA01A90CA8FFF7EC
:10056000D1FEDDE90DB00C995D46002610B909F108
:1005700001000D18B9EB050003D4C0F1FF3609F1F5
:100580000105A5EB09002BE0B9F1010F01DA4FF0ED
:1005900001090020B9F1110F0090484601DD112337
:1005A00000E003460AAA01A90CA8FFF7ABFEDDE9AB
:1005B0000C704D4600268346207800070AD4AB45D0
:1005C00000DA5D4601A8012D04DD411911F8011C76
:1005D000302907D04F4502DA17F1040F04DA012061
:1005E00082460FE06D1EEEE7002F02DCED1B3E445D
:1005F00003E0781CA84200DD7D1CB81B00F1010A55
:100600004FF000472078000703D4AA4501DB4FF0E4
:10061000FF3A0021B7F1004F0DF143088DF8431068
:1006200024D002202B23002F01DA7F422D230A2120
:10063000021EA0F1010000DC5FB197FBF1FC97FB0B
:10064000F1F201FB1C7C17460CF1300C08F801CDCF
:10065000EEE7A8F1010003702188090501D54521C5
:1006600000E06521A0F1010800F8011C09980FA91C
:10067000A1EB0807FF1D00B10120411901EBEA7051
:10068000A1693844081A401EA0612078C00602D42F
:100690002046AFF30080099828B1D4E901219047A2
:1006A000206A401C20622078C00622D52046AFF385
:1006B00000801EE0002E04DBB34502DD01A8805D52
:1006C00000E03020D4E901219047206A401C2062DC
:1006D000761CAAF101005FEA000A0AD100F03EF898
:1006E000C0680168405CD4E901219047206A401C41
:1006F0002062281EA5F10105DCDC07E0D4E9012118
:1007000018F8010B9047206A401C2062381EA7F1A0
:100710000107F3DC2046AFF30080032011B041E66F
:1007200001694A1C02610878704700B58FB0CDE9B5
:1007300001310021059105497944CDE903101146A5
:100740006846FFF761FD0FB000BD0000E5FFFFFF49
:100750000A6802F8010B0A60704700000048704701
:100760002802002030B5B0F10A024FEA900E71F174
:1007700000034EEA817EB0EB0E0061EB91014FEA7F
:10078000101E4EEA017E10EB0E0041EB11114FEAF4
:10079000102E4EEA016E10EB0E0041EB11214FEAD4
:1007A000104E4EEA014E10EB0E0041EB1141401885
:1007B00041F100014FEAD00040EA41704FEAD10117
:1007C00010EB80054FEA810444EA907444EB010485
:1007D0006D1944EB0404521BA3414FF0000348BFC2
:1007E0000A3200D530BD401C41F1000130BD00008F
:1007F0002DE9F0411F46044603260168072A01F44B
:10080000006004DB08B116A505E016A503E008B1F9
:1008100015A500E015A521F010002060A069C01EFC
:10082000A0610FB1401EA0612046AFF300804FB120
:10083000D4E9012138469047206A401C2062C01C40
:10084000206206E0206AFAE7D4E9012115F8010BDD
:100850009047761EF8D22046AFF30080BDE8F081C5
:100860004E414E006E616E00494E4600696E660054
:100870002DE9F047814616468AB0354878440DC8C0
:100880008DE80D0032487844801C03AC0DC884E824
:100890000D0041F69B300844372190FBF1F290FBAC
:1008A000F1F5A5F1800501FB12041B3C02D5644261
:1008B000012000E00020DFF898A080460027FA44DD
:1008C000AAF1BE0A0EE0E0070AD03246684607EBFE
:1008D000470101230AEB810100F046FB8DE8070088
:1008E00064107F1C002CEED1194F7F44AE3F19E0FD
:1008F000E80715D007EB04100DF1180A90E80E0078
:100900008AE80E00C068F04201D19819089032467A
:10091000012306A903A800F027FB03AB83E8070027
:100920006D10641C002DE3D14FF00103324669467F
:10093000B8F1000F03A802D000F001FB01E000F0C5
:1009400013FBC9E90001C9F808200AB0BDE8F08727
:10095000782B000000487047080200207546FFF71A
:10096000F9FFAE4605006946534620F0070085466C
:1009700018B020B5FFF722FCBDE820404FF000067C
:100980004FF000074FF000084FF0000B21F0070177
:10099000AC46ACE8C009ACE8C009ACE8C009ACE8BA
:1009A000C0098D46704710B50446AFF3008020465D
:1009B000BDE81040FFF7EEBB4FF0013C50F8042BB0
:1009C00051F8043B9A4221D1A2EB0C03934313EA62
:1009D000CC1317D150F8042B51F8043B9A4215D18F
:1009E000A2EB0C03934313EACC130BD150F8042B66
:1009F00051F8043B9A4209D1A2EB0C03934313EA4A
:100A0000CC13DBD04FF00000704700BFD01A01BA02
:100A1000B1FA81F101F0180122FA01F0CB40C1F1E5
:100A20002001DBB2C0B2C01A2CFA01F3D11A9143F3
:100A300011EAC311E6D1704701491820ABBEFEE7A9
:100A40002600020070475FEA400C08BF91F0000FDB
:100A50004FEA8C234FEAC12243EA51514FEA1C501E
:100A600018BF00F5F0404FEA300018BF41F00041D8
:100A70005FEA6C5C00F02980BCF1FF3F08BF40F0EA
:100A800080407047130C06BF12044FF0100C4FF05B
:100A9000000C130E04BF12020CF1080C130F04BF5C
:100AA00012010CF1040C930F04BF92000CF1020C24
:100AB000D30F04BF52000CF1010C11464FF000029D
:100AC000A0F11F00A0EB0C00704711F0004F08BF11
:100AD000704731F000413FF4D5AF0B0C06BF09045D
:100AE0004FF0100C4FF0000C0B0E04BF09020CF17C
:100AF000080C0B0F04BF09010CF1040C8B0F04BF91
:100B000089000CF1020CCB0F04BF49000CF1010C61
:100B1000CCF12003A0EB0C0022FA03F302FA0CF252
:100B200041EA030100F10100704720F07F4C80EAA8
:100B3000030023F07F47ACEB070303F57C5300F081
:100B4000004003F1FF032DE980494FEA154B09B43A
:100B50004FEA144325EA0B4E24EA03480FF2042619
:100B600006EB132749083E785FEA320203FB06676B
:100B7000C7F5000707FB06F64FEA54374FEAD6469B
:100B800006F1020607FB066CCCF1005C4FEA1C473D
:100B90002CEA074C07FB06F40CFB06F504EB1546A4
:100BA0004FEA961634BF00204FF000404FEAD1378D
:100BB00006FB07FC4FEA1C4C0CFB0BF7D21B03FB9C
:100BC0000CF761EB07010CFB0EF7B0EB074072EB83
:100BD00017420CFB08F734BFA2EB0742B2EB074207
:100BE00061EB17414FEA0C444FEA910706FB07FC03
:100BF0004FEA1C4C0CFB0BF7B0EBC74072EB5732C3
:100C000003FB0CF734BFA2EBC742B2EBC74261EB68
:100C100057310CFB0EF7B0EBC70072EB57720CFBB1
:100C200008F734BFA2EBC702B2EBC70261EB577102
:100C3000039F4FEA816141EA921104EBCC044FEA31
:100C4000D1374FEA826206FB07FC42EA90124FEA74
:100C500080604FEA1C4C0CFB0BF7D21B03FB0CF71C
:100C600061EB07010CFB0EF7B0EB074072EB17428C
:100C70000CFB08F734BFA2EB0742B2EB074261EB73
:100C800017414FEA8C554FEA910704EB9C2406FB71
:100C900007FC4FEA1C4C0CFB0BF7B0EBC74072EBA8
:100CA000573203FB0CF734BFA2EBC742B2EBC7428B
:100CB00061EB57310CFB0EF7B0EBC70072EB5772CC
:100CC0000CFB08F734BFA2EBC702B2EBC70261EB23
:100CD000577115EB4C254FEA816141EA92114FEAB9
:100CE00082624FEAD13742EA901206FB07FC44F1D8
:100CF00000044FEA80604FEA1C4C0CFB0BF7D21B40
:100D000003FB0CF761EB07010CFB0EF7B0EB0740A0
:100D100072EB17420CFB08F734BFA2EB0742B2EBB1
:100D2000074261EB174115EB1C154FEA813141EA8F
:100D300092414FEA823242EA90424FEA80304FEAD3
:100D40000C7644F1000448EA03434EEA0B484FF0A6
:100D5000000EB2EB080C71EB030724BF6246394664
:100D60004EEB0E0E4FF0000B0018524149414BEB79
:100D70000B0BB2EB080C71EB03077BF1000B24BFEC
:100D8000624639464EEB0E0E4FF0000B00185241F2
:100D900049414BEB0B0BB2EB080C71EB03077BF1FA
:100DA000000B24BF624639464EEB0E0E51EA020795
:100DB00018BF46F0010616EB0E7655F1000254F10D
:100DC000000103D5BDE88901BDE80088BDE88901BF
:100DD000BDE80048B619524141EB0101A3F10103FE
:100DE000704780807F7E7D7C7B7A79787776767598
:100DF0007473727171706F6E6E6D6C6C6B6A6A6910
:100E00006868676666656464636362616160605FA9
:100E10005F5E5E5D5D5C5C5B5B5A5A595958585722
:100E2000575656555555545453535252525151508A
:100E300050504F4F4F4E4E4D4D4D4C4C4C4B4B4BDD
:100E40004A4A4A4949494848484747474746464623
:100E5000454545444444444343434342424242415E
:100E60004141002B9C4630D477002BD01CB54FEA73
:100E7000370703B44FF010004FF01001BAF1000F24
:100E800006D0BCF1000FDCBF40F0080040F00801C4
:100E90004FF000000FBCBDE810400BF1010BBBF19F
:100EA000010F08BF5FEA170722BF12F1010211F11B
:100EB00001014FF0004143F1000300F0004043EA1C
:100EC00000007047F9D35708D0E746EA064613F109
:100ED000400F4FEA16461FDD13F1200FDFBF164308
:100EE0000A46002120335B42BED0C3F1200746EA08
:100EF000064602FA07F74FEA164646EA0706C3F126
:100F0000200722FA03F201FA07F721FA03F14FF062
:100F1000000342EA0702A7E746EA020646EA064657
:100F20004FEA164646EA0106BCBF46EA0646360CBC
:100F30004FF000034FF000024FF0000194E72DE95D
:100F4000804C9A46934670B491E8380007C831EA5D
:100F5000400C48BF34EA430C03D5FFF7E6FDFFF72A
:100F600080FFF0BCBDE8008C2DE9804C9A4693468A
:100F700070B491E8380007C810F0804F08BF13F034
:100F8000804F03D100F005F8FFF76BFFF0BCBDE820
:100F9000008C20F07F4780EA030023F07F4C07EBB2
:100FA0000C03A3F57C5300F00040A3F1FE0392F084
:100FB000000F00F0B38095F0000F00F077802DE96E
:100FC00001494FEA11404FEA144621EA004800FB6C
:100FD00006FC24EA064708FB06F607FB08F800FBB8
:100FE00007F718EB06484CEB164C4FEA124B18EB80
:100FF00007484FEA15464CEB174022EA0B4E0BFB15
:1010000006FC25EA06470EFB06F607FB0EFE0BFB69
:1010100007F71EEB064E4CEB164C4FF000061EEB8E
:10102000074E4CEB174B18EB0B0840F1000018EB88
:101030000E0B58EB000840F100008F1A4FF0000132
:101040003CBFC943661B14BFB5EB040C00213CBF79
:10105000C943F61B4FEA17444EEA8E0E27EA0445B1
:101060004FEA1C4704FB07622CEA074C05FB07F715
:101070000CFB05F604FB0CFC16EB074642EB174293
:1010800016EB0C4642EB1C421BEB060658EB020229
:10109000414146EA9E0601D5BDE80189B619524193
:1010A00041EB0101A3F10103BDE801894FEA1445B9
:1010B0004FEA114724EA054621EA074C05FB07F4ED
:1010C00006FB07F70CFB06F105FB0CFC11EB0741D7
:1010D00044EB17444FEA124711EB0C4144EB1C441C
:1010E00022EA074C05FB07F206FB07F70CFB06F6A6
:1010F00005FB0CFC16EB074642EB174216EB0C46C1
:1011000042EB1C456A1854F1000148BF7047B619FC
:10111000524141EB0101A3F10103704795F0000F2B
:1011200037D04FEA11424FEA144721EA024624EA37
:10113000074C02FB07F106FB07F70CFB06F402FB6A
:101140000CFC14EB074441EB17414FEA154714EB35
:101150000C4441EB1C4125EA074C02FB07F506FB5A
:1011600007F70CFB06F602FB0CFC16EB074645EBFB
:10117000174516EB0C4645EB1C42121951F10001C4
:1011800048BF7047B619524141EB0101A3F1010379
:1011900070474FEA14454FEA114724EA054621EA11
:1011A000074C05FB07F106FB07F70CFB06F24FF0B7
:1011B000000605FB0CFC12EB074241EB174112EB5A
:1011C0000C4251EB1C4148BF7047921841EB0101A2
:1011D000A3F101037047FEE7704772B6FEE7000017
:1011E0000D490022C882104631F81030401CC0B2B0
:1011F0001A440C28F8D30C20B2FBF0F25FF0000088
:1012000001EB40035B8821F81030401CC0B20C2871
:10121000F6D390B2704700004C0000202DE9F84F43
:10122000DFF89C91002409F1040A0AF1040B23461B
:101230000F270BF1040EBBE00125A5402A40AA426E
:1012400076D1DFF880C14E68A6EB0C0866452BD03E
:101250000DDC032E34D005DC36B3012E19D0022E5E
:101260002FD11BE0112E16D0122E2AD119E0B8F57D
:10127000881F19D006DCB8F5803F15D0B8F5801F5F
:101280001FD111E0B8F5001F0ED0B8F5041F18D11A
:101290000AE0CB6815E0CB681B1D12E0CB68083371
:1012A0000FE0CB680C330CE08B682BB1012B4FF0B7
:1012B000080303D0456104E0042302E0056100E077
:1012C0000023FF2A01D8064601E000F104064FEA98
:1012D000840501D9A5F12005D6F8008007FA05FCA0
:1012E00028EA0C0803FA05F548EA0508C6F8008064
:1012F0004D68ED005BD5344DAE6946F00106AE6138
:10130000AD6924F0030605F0010500952F4D06EBAD
:10131000050CDCF80850A607360F07FA06F825EA90
:101320000805DFF8AC80404503D14FF0000810E01D
:101330003DE0DFF8A080404502D14FF0010808E011
:10134000DFF89480404502D14FF0020801E04FF0F1
:10135000030808FA06F848EA0508CCF808804D6842
:10136000D9F80060ED034D4601D5164300E09643E1
:101370002E604D68DAF80060AD03554601D516437E
:1013800000E096432E604D68DBF80060ED025D469C
:1013900001D5164300E096432E604D68DEF80060EC
:1013A000AD02754601D5164300E096432E60641CDD
:1013B0000A6832FA04F57FF43FAFBDE8F88F000009
:1013C0000004014000001110001002400000014024
:1013D00000080140000C014000100140C26821EAF1
:1013E00002030A4043EA0241016170470AB1016108
:1013F00070470904FBE7000001488068704700005F
:101400003C000020024881680278114481607047E6
:101410003C000020074810B5016841F01001016050
:10142000032000F075F8002000F006F800F024F822
:10143000002010BD0020024070B50D4D04464FF451
:101440007A712878B1FBF0F00A490968B1FBF0F035
:1014500000F06FFC48B9102C07D200222146501E24
:1014600000F036F800206C6070BD012070BD0000F7
:101470003C000020480000200C4808B5816941F07C
:1014800001018161816901F001010091C16941F0AF
:101490008051C161C06900F08050009004484168EB
:1014A00021F0E06141F00071416008BD0010024090
:1014B00000000140002809DB00F01F0201219140DB
:1014C0004009800000F1E020C0F8001170470000E2
:1014D000F0B40E4B1B680C46C3F30223C3F107059F
:1014E000042D00D90425191D072901D2002300E08D
:1014F000DB1E012606FA05F1491E214099409E4057
:10150000761E16403143F0BC01F065BA0CED00E0E8
:10151000064900F0070208684FF6FF03184040EA4A
:101520000220034A10430860704700000CED00E001
:101530000000FA052DE9F0470F46050061D0434E43
:10154000306800F00700B84209D2306820F0070088
:1015500038433060306800F00700B84251D1286845
:101560003B4C810712D5400703D5606840F4E0602A
:1015700060602878000703D5606840F460506060C0
:101580006068A96820F0F000084360602878C00710
:1015900028D06868012810D02168022810D0890757
:1015A00000292EDA616821F0030101436160FFF731
:1015B00023FF804641F288390DE021688903EFE777
:1015C0008901EDE7FFF718FFA0EB0801494502D9B3
:1015D0000320BDE8F0876068696800F00C00B0EB9C
:1015E000810FEFD1306800F00700B8420BD93068A6
:1015F00020F0070038433060306800F00700B84240
:1016000001D00120E5E72878400705D56068E96842
:1016100020F4E060084360602878000706D5606821
:10162000296920F4605040EAC100606000F038F899
:101630006168084AC1F30311515CC840064908605B
:1016400006480068FFF7F8FE0020C2E700200240CD
:1016500000100240643300084800002040000020D1
:101660000448054900684968044AC1F30221515CF5
:10167000C840704748000020001002407433000842
:101680000448054900684968044AC1F3C221515C15
:10169000C840704748000020001002407433000822
:1016A00012A185B00FC98DE80F0014A0144A00687C
:1016B00004905168134801F00C03042B10D0082B40
:1016C0000ED1C1F38343C9031DF803000AD5516845
:1016D00004AAC1F34041515C0A4A5043B0FBF1F007
:1016E00005B0704708494843FAE7000002030405C3
:1016F000060708090A0B0C0D0E0F1010010200005E
:101700000010024000127A0000093D002DE9F84F58
:10171000040070D02078C04DC00749D06868C0F37D
:101720008100012807D06868C0F38100022809D130
:101730006868C00306D52868800339D5606800282A
:10174000E7D035E06068B0F5803F0BD010B1B0F560
:10175000A02F11D0286820F480302860286820F459
:10176000802002E0286840F480302860606890B1F2
:10177000FFF742FE06460AE0286840F48020286011
:10178000F0E700BFFFF738FE801B642873D8286895
:101790008003F7D50CE0FFF72FFE064605E000BFFB
:1017A000FFF72AFE801B6428F0D828688003F7D44E
:1017B00020789A4E80074FF001094FF0000839D584
:1017C000686810F00C0F07D06868C0F38100022829
:1017D00009D16868C00306D42868800714D5206939
:1017E000012808D110E02069B0B1C6F80090FFF7D9
:1017F00003FE074605E00AE1FFF7FEFDC01B0228D5
:10180000C4D828688007F7D52868616920F0F800F7
:1018100040EAC10028600DE0C6F80080FFF7ECFD4B
:10182000074604E0FFF7E8FDC01B022823D828681C
:101830008007F7D4207800072CD57948A169D9B161
:10184000C0F80090FFF7D8FD074604E0FFF7D4FD8D
:10185000C01B02280FD8686A8007F7D571484FF47B
:10186000FA510068B0FBF1F0009000BF0098411EF3
:101870000091FAD20EE080E0C0F80080FFF7BCFDD6
:10188000074604E0FFF7B8FDC01B022875D8686A58
:101890008007F7D42078400760D5E8690027C000AA
:1018A00008D4E86940F08050E861E869012700F059
:1018B000805000905C480168C90513D401688346D4
:1018C00041F480710160FFF797FD824606E000BF9A
:1018D000FFF792FDA0EB0A0064284ED8DBF8000069
:1018E000C005F5D5E06801280AD008B1052813D055
:1018F000286A20F001002862286A20F0040002E033
:10190000286A40F001002862E06841F2883B98B103
:10191000FFF772FD82460BE0286A40F0040028625F
:10192000EEE700BFFFF768FDA0EB0A0159455AD862
:10193000286A8007F6D50CE0FFF75EFD824605E0D9
:10194000FFF75AFDA0EB0A0159454CD8286A8007D9
:10195000F6D41FB1E86920F08050E861E06988B3EF
:101960006968C1F38101022944D00228C6F8608069
:1019700004D0FFF741FD044638E034E0FFF73CFDBA
:10198000074604E0FFF738FDC01B02282BD8286863
:101990008001F7D4206AB0F5803F05D16868A1685E
:1019A00020F4003008436860D4E9080108436968FE
:1019B00021F4741108436860C6F86090FFF71CFDBD
:1019C000044606E025E000BFFFF716FD001B0228D5
:1019D00009D828688001F7D51BE000BFFFF70CFD90
:1019E000001B022802D90320BDE8F88F2868800177
:1019F000F4D40EE00128F7D06868226A00F4803140
:101A0000914204D1616A00F47010884201D0012033
:101A1000EAE70020E8E70000001002400000424230
:101A200080044242480000200070004070B504006D
:101A300009D0606A002540B125616561A56294F80E
:101A4000510040B10CE0012070BD6068B0F5827FAC
:101A5000F4D0E561F2E784F85050204600F040F8F9
:101A6000022084F851002068016821F040010160E3
:101A7000A088218900F4827001F404410843A189FF
:101A800001F400610843217C01F002010843217D3B
:101A900001F001010843218B01F400710843217F0B
:101AA00001F03801084394F8201001F08001084348
:101AB000218D01F40051084321680860A0690421C8
:101AC00001EA1040216848602068C16921F4006182
:101AD000C1616565012084F85100002070BD0000DF
:101AE00030B585B0002400940194029403940068FA
:101AF0001449884223D11448816941F4805181619D
:101B0000816901F480510491816941F0040181618E
:101B100080690E4D00F004000490A0200090022087
:101B200001900320039069462846FFF777FB402089
:101B3000CDE90004694628460294FFF76FFB05B023
:101B400030BD00000030014000100240000801409C
:101B50002DE9F84F044690F8500000270A9E1D46D4
:101B600092468B464FF0010901280ED0012084F8DF
:101B70005000FFF741FC804694F85100616801284D
:101B80000CD0B1F5827F07D102E00220BDE8F88FCA
:101B9000A16809B9042801D00227C2E0BBF1000FF7
:101BA00027D0BAF1000F24D01DB394F851000428B7
:101BB00002D0052084F8510000206065C4F838A0E8
:101BC000E587A587C4F830B0E586A5862064606403
:101BD00020680168490603D4016841F040010160B2
:101BE000E068B0F5006F606805D0E8B3012D46D01D
:101BF0007FE0012795E008B1012D39D1206B2168E4
:101C00000088C860206B801C2063E08E401EE08648
:101C10002EE02068816889070FD5E18E69B1B9F19E
:101C2000010F0AD1216B0988C160206B801C2063E1
:101C3000E08E401EE0864FF0000920688168C907E9
:101C40000CD0E18F51B1C068A16B0880A06B801CE3
:101C5000A063E08F401EE0874FF00109FFF7CCFB47
:101C6000A0EB0800B04200E009E001D3701C50D1A5
:101C7000E08E0028CDD1E08F0028CAD13FE0206B54
:101C8000216800780873206B401C2063E08E401EA2
:101C9000E0862EE02068816889070FD5E18E69B162
:101CA000B9F1010F0AD1216B09780173206B401C37
:101CB0002063E08E401EE0864FF0000920688168B6
:101CC000C9070CD0E18F51B1C068A16B0870A06B3F
:101CD000401CA063E08F401EE0874FF00109FFF732
:101CE0008BFBA0EB0800B04202D3701C01D010E0C7
:101CF0007EB1E08E0028CDD1E08F0028CAD14246C7
:101D00003146204600F0FBFB28B10127202060650A
:101D100007E0032705E0A06818B92068C16880685B
:101D20000090012084F85100002084F850003846CB
:101D30002CE710B5401EB0F1807F01D3012010BD0B
:101D40004FF0E02460610F21601700F044FE002096
:101D5000A06107202061002010BD7047704700007F
:101D600070B590F83C20012A23D0012480F83C4033
:101D7000022280F83D2003685A689D6822F07006B0
:101D80000A6832435A600C4B02689A4205D0B2F19D
:101D9000804F02D0094B9A4204D1496825F0800354
:101DA0001943916080F83D40002180F83C100846BE
:101DB00070BD022070BD0000002C014000040040F6
:101DC00010B5040003D094F83D0010B107E00120E5
:101DD00010BD002084F83C00204600F01FF80220CF
:101DE00084F83D00211D206800F0EEFC012084F8FD
:101DF000460084F83E0084F83F0084F8400084F8F0
:101E0000410084F8420084F8430084F8440084F8D8
:101E1000450084F83D00002010BD000008B5154ABB
:101E20000168154891420ED1816941F400618161D8
:101E30008069002200F40060009011461920FFF72D
:101E400047FB192010E00D4A914211D1C16941F0C0
:101E50000201C161C069002200F002000090114639
:101E60001D20FFF735FB1D20BDE80840FFF722BB12
:101E700008BD0000002C014000100240000400409A
:101E800090F83D10012901D001207047022180F80F
:101E90003D100168CA6842F00102CA6000680A4940
:101EA000884205D0B0F1804F02D00849884204D161
:101EB000816801F00701062903D0016841F00101A2
:101EC0000160002070470000002C01400004004029
:101ED00070B5044690F83C00012817D0012584F81D
:101EE0003C50022084F83D002068826822F077028E
:101EF00022F47F4282600868502830D00DDC202810
:101F00004DD005DC98B310283BD148E0022070BDCD
:101F1000302844D0402834D139E0602828D07028B7
:101F200006D0B0F5805F2CD0B0F5005F29D10AE073
:101F3000CB68D1E90121206800F074FC2068816839
:101F400041F0770109E0CB68D1E90121206800F078
:101F500069FC2068816841F48041816011E0CA68B1
:101F60004968206800F070FC5021206807E016E006
:101F7000CA684968206800F078FC6021206800F099
:101F80005BFC84F83D50002084F83C0070BDCA68BA
:101F90004968206800F058FC40212068EFE722687B
:101FA00001461046EBE7704770B5044600680169CA
:101FB0004FF00005C943890715D4C168C943890793
:101FC00011D4E91E01610120207720688069800713
:101FD000204602D0FFF7E7FF04E000F098F8204623
:101FE00000F096F8257720680169C943490717D49E
:101FF000C168C943490713D46FF00401016102208D
:1020000020772068806910F4407F204602D0FFF7D7
:10201000CAFF04E000F07BF8204600F079F825774D
:1020200020680169C943090716D4C168C943090773
:1020300012D46FF008010161042020772068C06984
:102040008007204602D0FFF7AEFF04E000F05FF803
:10205000204600F05DF8257720680169C943C9066C
:1020600017D4C168C943C90613D46FF010010161C8
:10207000082020772068C06910F4407F204602D0F5
:10208000FFF791FF04E000F042F8204600F040F82E
:10209000257720680169C943C90708D1C168C943C8
:1020A000C90704D1891E0161204600F032F820687A
:1020B0000169C943090609D4C168C943090605D4A1
:1020C0006FF0800101612046FFF747FE206801693B
:1020D000C943490609D4C168C943490605D46FF00C
:1020E00040010161204600F015F820680169C943EC
:1020F00089060BD4C168C943890607D46FF0200153
:1021000001612046BDE87040FFF728BE70BD7047F2
:1021100070477047704770B5040004D094F83D00D4
:10212000002510B106E0012070BD84F83C50204627
:1021300000F022F8242084F83D002068C16821F4D2
:102140000051C160204600F0A3FB2068016921F422
:10215000904101612068416921F02A0141612068B4
:10216000C16841F40051C1602564202084F83D001D
:1021700084F83E00002070BD70B586B00024009445
:10218000019402940394234E0368234902200322FE
:10219000224DB34219D18B6943F480438B618B6923
:1021A00003F4804304938B6943F004038B618969D2
:1021B000039201F0040104910102CDE90010694687
:1021C0002846FFF72BF828151BE0154EB3421FD108
:1021D000CB6943F40033CB61CB6903F40033049340
:1021E0008B6943F004038B618969039201F0040158
:1021F00004910421CDE9001069462846FFF70EF846
:102200000820CDE90004694628460294FFF706F845
:1022100006B070BD003801400010024000080140C7
:10222000004400402DE9F843044690F83D001F4665
:1022300016460D4620284CD1C5B1BEB194F83C00DD
:10224000012846D0012084F83C004FF00008C4F873
:102250004080212084F83D00FFF7CEF8A684814617
:10226000E684A068B0F5805F03D004E00120BDE8FB
:10227000F883206928B12E465FF0000584F83C8081
:102280000EE00026FAE78021204600F05DFBA0B9B1
:10229000AEB116F8010B21684860E08C401EE08466
:1022A000E08C4B464FF0000200970028EBD14FF036
:1022B0004001204600F048FB30B10320D7E735F855
:1022C000020BC0F30800E6E7202084F83D00002060
:1022D000CDE70220CBE7FEE7F0B585B0002420482B
:1022E0000094019402940394816941F0100181618A
:1022F000816901F010010491816941F0200181613F
:10230000816901F020010491816941F0040181613A
:102310008069144E00F004004FF4604504900022E0
:1023200029463046FFF762F80F4F00221021384649
:10233000FFF75CF80220CDE90240009501256946CF
:1023400001953046FEF76AFF1020CDE90005694689
:102350003846CDE90245FEF761FF05B0F0BD00004B
:10236000001002400010014000080140114810B563
:102370000F4901604FF48271416000214FF4006207
:10238000C0E902120122C0E904125202826118223D
:10239000C0E90721416281620A21C162FFF746FB61
:1023A000002803D0BDE81040FEF717BF10BD0000A5
:1023B000003001409800002010B586B00024174876
:1023C00000940194029403940494134905940160C9
:1023D0004721C0E901146321C0E903144461846109
:1023E000FFF7EEFC08B1FEF7F8FE4FF480500090C6
:1023F00069460A48FFF76CFD08B1FEF7EEFE04944B
:1024000004A906480594FFF7ABFC002801D0FEF7AD
:10241000E4FE06B010BD0000002C0140F0000020DA
:1024200010B586B0002417480094019402940394D8
:1024300004941349059401604721C0E901144FF445
:102440007A71C0E903148461FFF7BAFC08B1FEF7A2
:10245000C4FE4FF48050009069460A48FFF738FDEB
:1024600008B1FEF7BAFE049404A906480594FFF7E4
:1024700077FC002801D0FEF7B0FE06B010BD0000CA
:1024800000040040380100200C4810B50A490160E2
:102490004FF4E1314160002181600C22C160C0E94C
:1024A00004128161C161FFF736FE002803D0BDE848
:1024B0001040FEF792BE10BD0038014080010020A0
:1024C0000C4810B50A4901604FF4E1314160002128
:1024D00081600C22C160C0E904128161C161FFF713
:1024E0001AFE002803D0BDE81040FEF776BE10BDEE
:1024F00000440040C4010020FEE7FEE7704738B505
:102500000B46009204460022802100F009F80028C2
:1025100004D0606D40F020006065032038BD0000ED
:102520002DE9F8431E46914688460446089DFEF76D
:1025300063FF401B351AFEF75FFF0746254800681A
:10254000C0F3CB30684338E0701C37D0FEF754FF3F
:10255000C01BA84203D215B1009860B32CE02068DC
:10256000416821F0E00141606068B0F5827F0BD1E5
:10257000A068B0F5004F02D0B0F5806F04D120689C
:10258000016821F040010160A06AB0F5005F09D147
:102590002068016821F4005101602068016841F45D
:1025A00000510160012084F85100002084F850009F
:1025B0000320BDE8F8830025401E00902068816854
:1025C00038EA010004D000214945BDD10020F0E7E0
:1025D0000121F9E74800002070470000002913D0CE
:1025E0000A4A0128526907D0022809D003280BD1D2
:1025F000B2FBF1F0064906E0B2FBF1F0054902E05A
:10260000B2FBF1F0044908607047000004000020AC
:1026100034000020280000202C0000200A498842B5
:1026200000D9084609490968094A491C1268B2FBE1
:10263000F1F1B1FBF0F1054A121D11600549086086
:10264000054948617047000040420F0028040040DF
:10265000480000203000002004000020FEF7D2BE19
:1026600030B58FB028216846FDF721FE14210AA855
:10267000FDF71DFE01210804CDE90010002402949D
:1026800002250491CDE907504FF4E0100990684607
:10269000FFF73CF808B172B6FEE70F20CDE90A0556
:1026A0004FF48060CDE90C4002210AA80E94FEF799
:1026B00041FF002801D072B6FEE70FB030BD000028
:1026C000144910B54868144A10F00C03134803D09D
:1026D000042B01D0082B09D002604968104AC1F3CD
:1026E0000311515C0268CA40026010BD4A684B6821
:1026F00002F470124FF0020413F4803F04EB924294
:1027000002D04B689B0301D5064B00E0024B5A43B5
:10271000E2E700000010024000127A0048000020AA
:102720006433000800093D00704700000148FFF7CE
:102730003BBC0000F000002070B51D496FF00100A7
:10274000096808611B4C216820691B4EB0FBF1F23F
:1027500001FB1200012528B9A9033046FEF73EFE11
:102760001648057061682069B0FBF1F201FB1200A8
:1027700030B94FF400413046FEF730FE1048057086
:10278000D4E90310B0FBF1F201FB120030B94FF4B1
:1027900000513046FEF722FE0A480570A168206904
:1027A000884201D300202061401C206170BD0000E0
:1027B0003801002028000020001001400500002002
:1027C000040000200600002070B50268134B144C72
:1027D0004FF08046984203D0B04201D0A04203D1CE
:1027E00022F070054A682A43984203D0B04201D0D3
:1027F000A04203D122F44074CA6822434C6922F0FB
:102800008002224302608A68C2620A688262984239
:1028100001D1096901630121416170BD002C0140B2
:102820000004004010B5846842EA032224F47F4487
:102830000A432243826010BD826822F070020A437C
:1028400042F007018160704710B5036A046A24F002
:1028500001040462846924F0F00444EA021423F0C1
:102860000A020A438461026210BD10B5036A23F0B4
:10287000100303628369046A23F4704343EA02325B
:1028800024F0A00343EA01118261016210BD00003F
:1028900070B5044600680169E26821F440511143B3
:1028A00001612169A0680843616908432168CA6819
:1028B00041F20C639A430243CA6020684169A269ED
:1028C00021F44071114341611E492068884202D1C0
:1028D000FEF7D6FE01E0FEF7C3FE00EBC00101EB00
:1028E0000012606864218000B2FBF0F3B3FBF1F3E7
:1028F0006FF018067343B2FBF0F5B2FBF0F605EB90
:102900008305322303EB0515B5FBF1F5B6FBF1F6B4
:1029100005F0F00505EB0615B2FBF0F6B2FBF0F0A2
:10292000B0FBF1F06FF01802504306EB800003EBB0
:102930000010B0FBF1F0216800F00F00284488601F
:1029400070BD0000003801402DE9F041984617465F
:102950000E460446069D1DE0681C1BD02DB1FEF7F7
:102960004BFDA0EB0800A84214D92068C16821F4EF
:10297000D071C1602068416921F0010141612020CE
:1029800084F83D0084F83E00002084F83C000320D9
:10299000BDE8F0812068006836EA000004D000201D
:1029A000B842D9D00020F3E70120F9E7FEE749005B
:1029B00050EAC12018BF04204A0D18BF40F00100A2
:1029C00040F2FF72B2EB515F08BF40F002000128F5
:1029D00008BF052070470907090E002804DB00F135
:1029E000E02080F80014704700F00F0000F1E020B4
:1029F00080F8141D7047F0B50025064601202B46CF
:102A0000044613E0775D3FB11754641CE4B2401CE8
:102A10006D1CFF2C0AD105E0D45403460124401C50
:102A20006D1C03E0D45401240346401C8D42E9D3BD
:102A3000D454F0BDFEB5002002900190FF208DF827
:102A400004001A4C3F208DF805002078184D42F202
:102A50001076012812D0002210212846FEF7C6FC6D
:102A6000012302AA01A913480096FFF771F8012279
:102A700010212846FEF7BAFC012020700022102108
:102A80002846FEF7B3FC012302AA01A909480096D3
:102A9000FFF75EF8012210212846FEF7A7FCBDF8DB
:102AA0000800C0F30D006080FEBD000000000020A3
:102AB00000080140980000201CB5FEF7ABFCFFF7B2
:102AC000CFFDFFF7FDFDFFF707FCFFF775FCFFF7F4
:102AD0004DFCFFF7A5FCFFF7D7FCFFF7F1FC574DC6
:102AE0006FF0010428680461554E3068046128467F
:102AF000FFF7C6F93068C16841F00101C160514873
:102B0000016841F0200101604F48016841F0200157
:102B100001604FF4FA70FFF781FD64210120FFF797
:102B20005DFD32210220FFF759FD14210320FFF73C
:102B300055FD286804612846FFF7A2F93046FFF7E3
:102B40009FF9424C4FF07E59002540F6FF7A2078DD
:102B500098B125703D49762018314A1D0870A0684B
:102B6000C4F819000521501FFFF745FF37495346A8
:102B700007221D313648FFF755FB6078D0B36570EA
:102B8000FFF758FFA080064600F06CF9314FDFF8E0
:102B9000C8803A46434600F079F900F089F8E060D1
:102BA0003046FEF71DFBE08000F05CF93A464346F4
:102BB00000F06CF900F07CF800F05CFB4FF0333271
:102BC000264B00F06DFA00F073F825492061884229
:102BD0000FDC00F04FFB234A234B00F057F9234A48
:102BE000234B00F051FA00F063F8A06010F1FF4FA2
:102BF00001D3A56003E0484501DDC4F80890A07842
:102C00000028A4D0A570206900F034FB06460F46CA
:102C1000E06800F02FFB02460B4616A11748CDE9ED
:102C20000067FDF7DDFA1548FDF722FB82B2534637
:102C300012491348FFF7F6FA89E70000F000002078
:102C4000380100200C3801400C44004004000020F2
:102C5000C401002019DCE8F95980963F3313634022
:102C6000000039436FD39FFD4811793FCDCCCCCCC8
:102C7000CCCCF13F2425662025663B006400002073
:102C80008001002010B500290AD00878002807D05C
:102C900005487844FDF790FE002801D0002010BDC3
:102CA0000248784410BD00009E070000960700000F
:102CB00021F00042A2F16052B2F5801F01F0004302
:102CC00028BFD2F17F6C0BD95FEA001C43EAC20235
:102CD00042EB507018BF704728BF20F001007047CA
:102CE000B2F5801FBCBF184670474FEA410C1CF577
:102CF000001F02D2084600F02EBB70B500F070F93C
:102D000000000089FFF7F6BF4FF00040A0F58000FB
:102D10007047000010B591EA030F48BF83F00043ED
:102D200000F1C681841A71EB030C05D2121943EB32
:102D30000C03001B61EB0C01DFF824E14FEA115496
:102D4000A4EB135C1EEA430F18BF9EEA445F73D0E6
:102D500023EA0E03DCF1200E21EA045143F4801330
:102D600032D322FA0CFE10EB0E0023FA0CFE41EBDC
:102D70000E01CCF1200E03FA0EFE10EB0E0051F105
:102D80000001B1F5801FCCF1200E32D201EB0451CD
:102D900012FA0EF2BDE8104058BF7047401C38BF11
:102DA0005FEA420218BF7047002814BF20F00100FC
:102DB00041F100014FEA410313F5001F38BF70478E
:102DC000A1F1C04100F05AB9012A43EB0302ACF172
:102DD000200CDCF11F0E32BF4FF0000E23FA0CF373
:102DE00010EB030041EB0451B4EB115FD0D0A1EB29
:102DF000045101F5801149085FEA300001EB0451EC
:102E00000ED350F1000038BF12FA0EFE08D1BDE813
:102E10001040C9E7401C38BF5FEA4202CAD1C3E78D
:102E2000BDE810404FEA410313F5001F38BF70475B
:102E3000A1F1C04100F022B99EEA445F08D011EA36
:102E40005E0FBDE8104004BF01F000410020704754
:102E5000BDE8104070B500F0C3F800BF64FBBE3E93
:102E60000000E0FFB0FA80F310FA03F10AD0C3F1DA
:102E70001D0303F580634FEA41504FEA035202EB12
:102E8000D12170474FF0000070470000DFF848C1C3
:102E900070B51CEA111E1EBF1CEA13159EEA0C0F2A
:102EA00095EA0C0F00F06F8081EA030423EA4C13CB
:102EB0004EEAD47E21EA4C1141F4801143F4801390
:102EC000AE44A1FB024CA0FB0365AEF17F7E361938
:102ED00055EB0C05A1FB034C4CF10003A0FB021CBD
:102EE00016EB0C06654153F10003094218BF46F08A
:102EF000010613F4007F0BD14FEA03314FEA05308E
:102F0000340341EA155140EA16506FF003020AE01B
:102F10004FEAC3214FEAC520F40241EA555140EA85
:102F200056506FF0020202EB2E4201EB025585EA89
:102F3000CE710AD05FEA440C18BF24F0004450F16F
:102F4000000041F1000120EAD47040F2FE7C6245AD
:102F500000D270BDA84214BF4FF080444FF04044EF
:102F6000002E08BF0024BEF1806FA8BFA1F1C041B0
:102F7000BDE8704080F282804FF0000001F1C04156
:102F800001F0004170479EEA0C0F0CEA131518BFC0
:102F900095EA0C0F06D04FF0000081EA030E0EF008
:102FA000004170BD00F01CF88900013E00F007B838
:102FB00000F009B84FEA430C5FEA5C5C08D081EA94
:102FC000030100F05BB84FEA410C5FEA5C5CF6D1AC
:102FD0004FF00000014970470000FF070000F87F34
:102FE0000EF1020E2EF0030E5EF8046B364205D48D
:102FF000012A43EB030515F5001F12D8012841EB08
:10300000010C1CF5001F0CD80ED14FEAD17C15F530
:10301000001F0CEB4C0C0CF1020C08BF4CEBD37CEA
:1030200004E04FF0080C01E04FEAD37C0CEB4C05B8
:1030300026FA05F606F00706B6F1040C06D20EEBEA
:10304000860CBDE870404CF0010C6047DFE80CF0E6
:10305000090B02024FF000414FF00000A1F50021E2
:1030600070BD19461046012851EB010418BFD4F574
:10307000001484BF002001F0004170BD0808A0F5D5
:1030800000114FEA3101704791EA030F10B581F04A
:1030900000413FF547AE83F0004300F009B800005F
:1030A00010B591EA030F48BF83F000433FF53AAEF5
:1030B000841A71EB030C07D212198CF0004C43EB0D
:1030C0000C03001B61EB0C01DFF8A4E14FEA115483
:1030D000A4EB135C1EEA430F18BF9EEA445F00F0A6
:1030E000B08023EA6E03524221EA0451C3EB6E031F
:1030F00038BF5B1EDCF1200E25D322FA0CFE10EB4C
:103100000E0043FA0CFE41EB0E01CCF1200E03FA47
:103110000EFE10EB0E0051F10001CCF1200E29D46F
:1031200012FA0EF201EB0451BDE8104058BF70478F
:10313000401C1CBFB2F1004F704700280CBF491C57
:1031400020F00100704712EB020E43EB030218BFA0
:103150004FF0010E4EEA4202ACF1200CDCF11E0EE3
:1031600054D943FA0CFE10EB0E0051F1FF31CCF1B3
:103170001E0ED5D50EF1010E12FA0EFE404141EBA6
:10318000010101EB445C5FEA5C5C10D910EBDE707E
:1031900001EB045138BFBEF1004FBDE8104018BF2D
:1031A000704700280CBF491C20F00100704730D246
:1031B0004FEAD42C11F5001124F400641BD0B1FAAD
:1031C00081F20B3AA41AA41ED2F12003914030FAE6
:1031D00003F31943904001EBCC71002C01EB045137
:1031E000BDE81040A8BF704701F1C0414FF000009A
:1031F00001F000417047B0FA80F310FA03F100D1FA
:1032000010BDE41A173C4805C90AE4E701EB045174
:1032100010BD491001EB0451BDE810404FEA3000E9
:1032200002E04FF0000170474A0008BF0042F8D0AA
:10323000B2F5001F28BF704701F000414FF00000B9
:1032400070479EEA445F07D011EA5E0FBDE8104068
:1032500004BF002100207047BDE8104070B5FFF7A3
:10326000BFFE00BF40DFF63E83F0004110467047CE
:103270000000E0FF43004FEAD30C4FEA3C0C434010
:103280001FBF40070CF1605113F0FE4F70471CF058
:10329000006F03D100200CF0004170470CF0004398
:1032A00043EA507010B540EACC0000F00EF800BFC1
:1032B000000000924FEA0001FFF7E0BE4FF000412E
:1032C0004FF00000A1F5002170470EF1020E2EF024
:1032D000030E5EF8044B244204D44FEA4102B2F1DB
:1032E0007F4F11D84FEA4003B3F17F4F0CD80ED176
:1032F0004FEAD07CB2F17F4F0CEB4C0C0CF1020C7E
:1033000008BF4CEBD17C04E04FF0080C01E04FEA21
:10331000D17C0CEB4C0324FA03F404F00704B4F161
:10332000040C06D20EEB840CBDE810404CF0010CEE
:103330006047DFE80CF0070802024FF00040A0F5FC
:10334000800010BD0846420018BFD2F1807288BFCD
:1033500000F0004010BDFF2141EAD050C005704789
:10336000FDF7A8B8000000000000000001020304FF
:1033700006070809000000000102030402400000E3
:10338000000000A00000000005400000000000C890
:10339000000000000C4000000000409C0000000005
:1033A000194000000020BCBE0000000034400000B6
:1033B000BFC91B8E00000004B5400000504BCFD0A9
:1033C0006607E2CF010000006C4100003E8251AA76
:1033D000DFEEA73401000000D9420000DCB5A0E216
:1033E0003A301F97FFFFFFFFB4450000FD25A0C83E
:1033F000E9A3C14FFFFFFFFFFF3F00000000008077
:1034000000000000FF3F00000000008000000000FE
:103410004C340008000000204C0000002801000887
:10342000983400084C0000201C08000044010008EB
:103430001C00000043000000F8FFFFFF0C0000002C
:103440000E0000000F0000002E0000000000000031
:10345000000000000000000000000000000000006C
:10346000000000000000000000000000000000005C
:1034700000000000E8030000E8030000E80300008B
:10348000E803000000000000010000001000000040
:08349000000000000024F4001C
:04000005080000ED02
:00000001FF
